{
  "transactions": [
    {
      "hash": "0x278dabea4342b01d20ff4250e50ffacab62d54fd990ad91478656e1606d0f09c",
      "transactionType": "CALL",
      "contractName": null,
      "contractAddress": "0x7189fb5b6504bbff6a852b13b7b82a3c118fdc27",
      "function": "approve(address,uint256)",
      "arguments": [
        "0x90A82462258F79780498151EF6f663f1D4BE4E3b",
        "500000000000000000"
      ],
      "transaction": {
        "from": "0xc83bb94779c5577af1d48df8e2a113dff0cb127c",
        "to": "0x7189fb5b6504bbff6a852b13b7b82a3c118fdc27",
        "gas": "0x106d1",
        "value": "0x0",
        "input": "0x095ea7b300000000000000000000000090a82462258f79780498151ef6f663f1d4be4e3b00000000000000000000000000000000000000000000000006f05b59d3b20000",
        "nonce": "0x30",
        "chainId": "0xa4b1"
      },
      "additionalContracts": [],
      "isFixedGasLimit": false
    },
    {
      "hash": "0xa93becd4710c16e0a836c5e39c90ec58267be22e145f41bfae744637a85b88c8",
      "transactionType": "CALL",
      "contractName": null,
      "contractAddress": "0x90a82462258f79780498151ef6f663f1d4be4e3b",
      "function": "transfer(uint256,uint16,bytes32)",
      "arguments": [
        "500000000000000000",
        "2",
        "0x000000000000000000000000c83bb94779c5577af1d48df8e2a113dff0cb127c"
      ],
      "transaction": {
        "from": "0xc83bb94779c5577af1d48df8e2a113dff0cb127c",
        "to": "0x90a82462258f79780498151ef6f663f1d4be4e3b",
        "gas": "0x72164",
        "value": "0x945415782ca80",
        "input": "0x961b94d000000000000000000000000000000000000000000000000006f05b59d3b200000000000000000000000000000000000000000000000000000000000000000002000000000000000000000000c83bb94779c5577af1d48df8e2a113dff0cb127c",
        "nonce": "0x31",
        "chainId": "0xa4b1"
      },
      "additionalContracts": [],
      "isFixedGasLimit": false
    }
  ],
  "receipts": [
    {
      "status": "0x1",
      "cumulativeGasUsed": "0x29941",
      "logs": [
        {
          "address": "0x7189fb5b6504bbff6a852b13b7b82a3c118fdc27",
          "topics": [
            "0x8c5be1e5ebec7d5bd14f71427d1e84f3dd0314c0f7b2291e5b200ac8c7c3b925",
            "0x000000000000000000000000c83bb94779c5577af1d48df8e2a113dff0cb127c",
            "0x00000000000000000000000090a82462258f79780498151ef6f663f1d4be4e3b"
          ],
          "data": "0x00000000000000000000000000000000000000000000000006f05b59d3b20000",
          "blockHash": "0x67c20076b2775adff9a9dfd192e8342d97cbe9bd4058bf3da802cc466a078a3e",
          "blockNumber": "0xd6f1702",
          "transactionHash": "0x278dabea4342b01d20ff4250e50ffacab62d54fd990ad91478656e1606d0f09c",
          "transactionIndex": "0x4",
          "logIndex": "0x3",
          "removed": false
        }
      ],
      "logsBloom": "0x00000000000000000000000000001000000000000000000000000000000200000000000000000000000000000000000000000000000000000000000000200000000000002000000000000000000000000000000000000000000000000000000000000000000000000000000000000000000000000000000000000000000000000000000000000000000000000002000000000000000000000000000000000000020000000000000000000000000000020000000000000000000000000000000000000000000000000000000000800000000000008000000000000000000000000010000000100000000000000000000000000000000000000000000000000000",
      "type": "0x2",
      "transactionHash": "0x278dabea4342b01d20ff4250e50ffacab62d54fd990ad91478656e1606d0f09c",
      "transactionIndex": "0x4",
      "blockHash": "0x67c20076b2775adff9a9dfd192e8342d97cbe9bd4058bf3da802cc466a078a3e",
      "blockNumber": "0xd6f1702",
      "gasUsed": "0xc8ca",
      "effectiveGasPrice": "0x989680",
      "from": "0xc83bb94779c5577af1d48df8e2a113dff0cb127c",
      "to": "0x7189fb5b6504bbff6a852b13b7b82a3c118fdc27",
      "contractAddress": null,
      "gasUsedForL1": "0x0",
      "l1BlockNumber": "0x133b14a"
    },
    {
      "status": "0x1",
      "cumulativeGasUsed": "0x19ff4c",
      "logs": [
        {
          "address": "0x7189fb5b6504bbff6a852b13b7b82a3c118fdc27",
          "topics": [
            "0xddf252ad1be2c89b69c2b068fc378daa952ba7f163c4a11628f55a4df523b3ef",
            "0x000000000000000000000000c83bb94779c5577af1d48df8e2a113dff0cb127c",
            "0x00000000000000000000000090a82462258f79780498151ef6f663f1d4be4e3b"
          ],
          "data": "0x00000000000000000000000000000000000000000000000006f05b59d3b20000",
          "blockHash": "0xe420570557ede3c2bc3146b3c1a44bf827983fde222c7db0bc201eb969f27cd6",
          "blockNumber": "0xd6f1721",
          "transactionHash": "0xa93becd4710c16e0a836c5e39c90ec58267be22e145f41bfae744637a85b88c8",
          "transactionIndex": "0x9",
          "logIndex": "0x18",
          "removed": false
        },
        {
          "address": "0x7189fb5b6504bbff6a852b13b7b82a3c118fdc27",
          "topics": [
            "0xddf252ad1be2c89b69c2b068fc378daa952ba7f163c4a11628f55a4df523b3ef",
            "0x00000000000000000000000090a82462258f79780498151ef6f663f1d4be4e3b",
            "0x0000000000000000000000000000000000000000000000000000000000000000"
          ],
          "data": "0x00000000000000000000000000000000000000000000000006f05b59d3b20000",
          "blockHash": "0xe420570557ede3c2bc3146b3c1a44bf827983fde222c7db0bc201eb969f27cd6",
          "blockNumber": "0xd6f1721",
          "transactionHash": "0xa93becd4710c16e0a836c5e39c90ec58267be22e145f41bfae744637a85b88c8",
          "transactionIndex": "0x9",
          "logIndex": "0x19",
          "removed": false
        },
        {
          "address": "0xa5f208e072434bc67592e4c49c1b991ba79bca46",
          "topics": [
            "0x6eb224fb001ed210e379b335e35efe88672a8ce935d981a6896b27ffdf52a3b2",
            "0x00000000000000000000000027428dd2d3dd32a4d7f7c497eaaa23130d894911"
          ],
          "data": "0x000000000000000000000000000000000000000000000000000000000001640900000000000000000000000000000000000000000000000000000000000000000000000000000000000000000000000000000000000000000000000000000080000000000000000000000000000000000000000000000000000000000000000f00000000000000000000000000000000000000000000000000000000000002270100020000000000000000000000003bf4aebcad920447c5fdd6529239ab3922ce2186000000d99945ff1000000000000000000000000090a82462258f79780498151ef6f663f1d4be4e3b000000000000000000000000344169cc4abe9459e77bd99d13aa8589b55b617400910000000000000000000000000000000000000000000000000000000000000001000000000000000000000000c83bb94779c5577af1d48df8e2a113dff0cb127c004f994e5454080000000002faf0800000000000000000000000007189fb5b6504bbff6a852b13b7b82a3c118fdc27000000000000000000000000c83bb94779c5577af1d48df8e2a113dff0cb127c0002000000000000000000000000000000000000000000000000000000000000000000000000000000000000000000000000000000000000000000000000000000000000000000600000000000000000000000000000000000000000000000000000000000000000000000000000000000000000000000000000000000000000000000000007a12000000000000000000000000000000000000000000000000000000000aca47cdc0002000000000000000000000000c83bb94779c5577af1d48df8e2a113dff0cb127c0000000000000000000000007a0a53847776f7e94cc35742971acb2217b0db810000000000000000000000007a0a53847776f7e94cc35742971acb2217b0db810000000000000000000000004386e36b96d437b0f1c04a35e572c10c6627d88a0000000000000000000000000000000000000000000000000000",
          "blockHash": "0xe420570557ede3c2bc3146b3c1a44bf827983fde222c7db0bc201eb969f27cd6",
          "blockNumber": "0xd6f1721",
          "transactionHash": "0xa93becd4710c16e0a836c5e39c90ec58267be22e145f41bfae744637a85b88c8",
          "transactionIndex": "0x9",
          "logIndex": "0x1a",
          "removed": false
        },
        {
          "address": "0x27428dd2d3dd32a4d7f7c497eaaa23130d894911",
          "topics": [
            "0xda8540426b64ece7b164a9dce95448765f0a7263ef3ff85091c9c7361e485364",
            "0x0000000000000000000000000000000000000000000000000000000000016409"
          ],
          "data": "0x00000000000000000000000000000000000000000000000000086d8138485b000000000000000000000000000000000000000000000000000000000000000000",
          "blockHash": "0xe420570557ede3c2bc3146b3c1a44bf827983fde222c7db0bc201eb969f27cd6",
          "blockNumber": "0xd6f1721",
          "transactionHash": "0xa93becd4710c16e0a836c5e39c90ec58267be22e145f41bfae744637a85b88c8",
          "transactionIndex": "0x9",
          "logIndex": "0x1b",
          "removed": false
        },
        {
          "address": "0x4386e36b96d437b0f1c04a35e572c10c6627d88a",
          "topics": [
            "0xc3192e083c87c556db539f071d8a298869f487e951327b5616a6f85ae3da958e"
          ],
          "data": "0x0000000000000000000000000000000000000000000000000000000000000000000000000000000000000000c83bb94779c5577af1d48df8e2a113dff0cb127c00000000000000000000000000000000000000000000000000086d8138485b00",
          "blockHash": "0xe420570557ede3c2bc3146b3c1a44bf827983fde222c7db0bc201eb969f27cd6",
          "blockNumber": "0xd6f1721",
          "transactionHash": "0xa93becd4710c16e0a836c5e39c90ec58267be22e145f41bfae744637a85b88c8",
          "transactionIndex": "0x9",
          "logIndex": "0x1c",
          "removed": false
        },
        {
          "address": "0x4386e36b96d437b0f1c04a35e572c10c6627d88a",
          "topics": [
            "0x79376a0dc6cbfe6f6f8f89ad24c262a8c6233f8df181d3fe5abb2e2442e8c738"
          ],
          "data": "0x0000000000000000000000000000000000000000000000000000000000000002000000000000000000000000000000000000000000000000000000000000004000000000000000000000000090a82462258f79780498151ef6f663f1d4be4e3b000000000000000000000000344169cc4abe9459e77bd99d13aa8589b55b61740000000000000000000000000000000000000000000000000000000000000080000000000000000000000000000000000000000000000000000000000000014000000000000000000000000000000000000000000000000000000000000000910000000000000000000000000000000000000000000000000000000000000001000000000000000000000000c83bb94779c5577af1d48df8e2a113dff0cb127c004f994e5454080000000002faf0800000000000000000000000007189fb5b6504bbff6a852b13b7b82a3c118fdc27000000000000000000000000c83bb94779c5577af1d48df8e2a113dff0cb127c00020000000000000000000000000000000000000000000000000000000000000000000000000000000000000000000000",
          "blockHash": "0xe420570557ede3c2bc3146b3c1a44bf827983fde222c7db0bc201eb969f27cd6",
          "blockNumber": "0xd6f1721",
          "transactionHash": "0xa93becd4710c16e0a836c5e39c90ec58267be22e145f41bfae744637a85b88c8",
          "transactionIndex": "0x9",
          "logIndex": "0x1d",
          "removed": false
        },
        {
          "address": "0x90a82462258f79780498151ef6f663f1d4be4e3b",
          "topics": [
            "0xe54e51e42099622516fa3b48e9733581c9dbdcb771cafb093f745a0532a35982"
          ],
          "data": "0x000000000000000000000000c83bb94779c5577af1d48df8e2a113dff0cb127c000000000000000000000000c83bb94779c5577af1d48df8e2a113dff0cb127c00000000000000000000000000000000000000000000000006f05b59d3b2000000000000000000000000000000000000000000000000000000086d8138485b0000000000000000000000000000000000000000000000000000000000000000020000000000000000000000000000000000000000000000000000000000000001",
          "blockHash": "0xe420570557ede3c2bc3146b3c1a44bf827983fde222c7db0bc201eb969f27cd6",
          "blockNumber": "0xd6f1721",
          "transactionHash": "0xa93becd4710c16e0a836c5e39c90ec58267be22e145f41bfae744637a85b88c8",
          "transactionIndex": "0x9",
          "logIndex": "0x1e",
          "removed": false
        }
      ],
      "logsBloom": "0x00000000800100000000000000001000000000000010000000000200000200000010000000000100000000000000000000000000800040000000000000000000000000002000000000000008080000200000200000100000000800000000040000000000020000000000000000000a00000000000040020000000010004000001000000008000100000200000102000000008000000000000000000000040000000000200400000000000000000000020000000000000000002000000000000000000002100000000000000000800000000000008004000004000000000020000000000000100000000008000000000000000000000000000000000040000000",
      "type": "0x2",
      "transactionHash": "0xa93becd4710c16e0a836c5e39c90ec58267be22e145f41bfae744637a85b88c8",
      "transactionIndex": "0x9",
      "blockHash": "0xe420570557ede3c2bc3146b3c1a44bf827983fde222c7db0bc201eb969f27cd6",
      "blockNumber": "0xd6f1721",
      "gasUsed": "0x5298e",
      "effectiveGasPrice": "0x989680",
      "from": "0xc83bb94779c5577af1d48df8e2a113dff0cb127c",
      "to": "0x90a82462258f79780498151ef6f663f1d4be4e3b",
      "contractAddress": null,
      "gasUsedForL1": "0x0",
      "l1BlockNumber": "0x133b14a"
    }
  ],
  "libraries": [],
  "pending": [],
  "returns": {},
  "timestamp": 1719273158,
  "chain": 42161,
  "commit": "037d292"
}