{
  "transactions": [
    {
      "hash": "0x99220567b4e482f1b656cba92bb262a4f5274ad0c7b47aa6b8df88c1452ff072",
      "transactionType": "CALL",
      "contractName": null,
      "contractAddress": "0xfe0c30065b384f05761f15d0cc899d4f9f9cc0eb",
      "function": "approve(address,uint256)",
      "arguments": [
        "0x344169Cc4abE9459e77bD99D13AA8589b55b6174",
        "500000000000000000"
      ],
      "transaction": {
        "from": "0xc83bb94779c5577af1d48df8e2a113dff0cb127c",
        "to": "0xfe0c30065b384f05761f15d0cc899d4f9f9cc0eb",
        "gas": "0x1090a",
        "value": "0x0",
        "input": "0x095ea7b3000000000000000000000000344169cc4abe9459e77bd99d13aa8589b55b617400000000000000000000000000000000000000000000000006f05b59d3b20000",
        "nonce": "0xc4",
        "chainId": "0x1"
      },
      "additionalContracts": [],
      "isFixedGasLimit": false
    },
    {
      "hash": "0x83a03be781592a6622ca38df3dece502f2b1649a525b86cdf7c353d2e57f5ba9",
      "transactionType": "CALL",
      "contractName": null,
      "contractAddress": "0x344169cc4abe9459e77bd99d13aa8589b55b6174",
      "function": "transfer(uint256,uint16,bytes32)",
      "arguments": [
        "500000000000000000",
        "23",
        "0x000000000000000000000000c83bb94779c5577af1d48df8e2a113dff0cb127c"
      ],
      "transaction": {
        "from": "0xc83bb94779c5577af1d48df8e2a113dff0cb127c",
        "to": "0x344169cc4abe9459e77bd99d13aa8589b55b6174",
        "gas": "0x60c2e",
        "value": "0x22ed5b5e1b0c0",
        "input": "0x961b94d000000000000000000000000000000000000000000000000006f05b59d3b200000000000000000000000000000000000000000000000000000000000000000017000000000000000000000000c83bb94779c5577af1d48df8e2a113dff0cb127c",
        "nonce": "0xc5",
        "chainId": "0x1"
      },
      "additionalContracts": [],
      "isFixedGasLimit": false
    }
  ],
  "receipts": [
    {
      "status": "0x1",
      "cumulativeGasUsed": "0xb4bc8e",
      "logs": [
        {
          "address": "0xfe0c30065b384f05761f15d0cc899d4f9f9cc0eb",
          "topics": [
            "0x8c5be1e5ebec7d5bd14f71427d1e84f3dd0314c0f7b2291e5b200ac8c7c3b925",
            "0x000000000000000000000000c83bb94779c5577af1d48df8e2a113dff0cb127c",
            "0x000000000000000000000000344169cc4abe9459e77bd99d13aa8589b55b6174"
          ],
          "data": "0x00000000000000000000000000000000000000000000000006f05b59d3b20000",
          "blockHash": "0x0cdabe582a4b9d911d97db7da7d30c05681f73c4597ae1f9d090e8a8f4601995",
          "blockNumber": "0x133b0e7",
          "transactionHash": "0x99220567b4e482f1b656cba92bb262a4f5274ad0c7b47aa6b8df88c1452ff072",
          "transactionIndex": "0x74",
          "logIndex": "0x12e",
          "removed": false
        }
      ],
      "logsBloom": "0x00000000000000000000004000000000000000000000000000000000000200800000000000000000000000000000000000000000000000000000000000200000000000000000000000000000000000000000000000000000000000000000000000000000000000000000000000000000000000000000000000000000000000000000000000000000000000000000000000000000000000000000000000000000020000000000000000000000000000020000000000000000010000000000000000000000000008000000000000000000000000008000000000000000000000000010000010000000000000000000000000200000000000000000000000000000",
      "type": "0x2",
      "transactionHash": "0x99220567b4e482f1b656cba92bb262a4f5274ad0c7b47aa6b8df88c1452ff072",
      "transactionIndex": "0x74",
      "blockHash": "0x0cdabe582a4b9d911d97db7da7d30c05681f73c4597ae1f9d090e8a8f4601995",
      "blockNumber": "0x133b0e7",
      "gasUsed": "0xb53a",
      "effectiveGasPrice": "0xaa2d779d",
      "blobGasUsed": "0x0",
      "from": "0xc83bb94779c5577af1d48df8e2a113dff0cb127c",
      "to": "0xfe0c30065b384f05761f15d0cc899d4f9f9cc0eb",
      "contractAddress": null
    },
    {
      "status": "0x1",
      "cumulativeGasUsed": "0xb91d6a",
      "logs": [
        {
          "address": "0xfe0c30065b384f05761f15d0cc899d4f9f9cc0eb",
          "topics": [
            "0xddf252ad1be2c89b69c2b068fc378daa952ba7f163c4a11628f55a4df523b3ef",
            "0x000000000000000000000000c83bb94779c5577af1d48df8e2a113dff0cb127c",
            "0x000000000000000000000000344169cc4abe9459e77bd99d13aa8589b55b6174"
          ],
          "data": "0x00000000000000000000000000000000000000000000000006f05b59d3b20000",
          "blockHash": "0x0cdabe582a4b9d911d97db7da7d30c05681f73c4597ae1f9d090e8a8f4601995",
          "blockNumber": "0x133b0e7",
          "transactionHash": "0x83a03be781592a6622ca38df3dece502f2b1649a525b86cdf7c353d2e57f5ba9",
          "transactionIndex": "0x75",
          "logIndex": "0x12f",
          "removed": false
        },
        {
          "address": "0x98f3c9e6e3face36baad05fe09d375ef1464288b",
          "topics": [
            "0x6eb224fb001ed210e379b335e35efe88672a8ce935d981a6896b27ffdf52a3b2",
            "0x00000000000000000000000027428dd2d3dd32a4d7f7c497eaaa23130d894911"
          ],
          "data": "0x000000000000000000000000000000000000000000000000000000000000387000000000000000000000000000000000000000000000000000000000000000000000000000000000000000000000000000000000000000000000000000000080000000000000000000000000000000000000000000000000000000000000000f00000000000000000000000000000000000000000000000000000000000002270100170000000000000000000000004386e36b96d437b0f1c04a35e572c10c6627d88a000000d99945ff10000000000000000000000000344169cc4abe9459e77bd99d13aa8589b55b617400000000000000000000000090a82462258f79780498151ef6f663f1d4be4e3b00910000000000000000000000000000000000000000000000000000000000000003000000000000000000000000c83bb94779c5577af1d48df8e2a113dff0cb127c004f994e5454080000000002faf080000000000000000000000000fe0c30065b384f05761f15d0cc899d4f9f9cc0eb000000000000000000000000c83bb94779c5577af1d48df8e2a113dff0cb127c0017000000000000000000000000000000000000000000000000000000000000000000000000000000000000000000000000000000000000000000000000000000000000000000600000000000000000000000000000000000000000000000000000000000000000000000000000000000000000000000000000000000000000000000000007a12000000000000000000000000000000000000000000000000000000000001170490017000000000000000000000000c83bb94779c5577af1d48df8e2a113dff0cb127c0000000000000000000000007a0a53847776f7e94cc35742971acb2217b0db810000000000000000000000007a0a53847776f7e94cc35742971acb2217b0db810000000000000000000000003bf4aebcad920447c5fdd6529239ab3922ce21860000000000000000000000000000000000000000000000000000",
          "blockHash": "0x0cdabe582a4b9d911d97db7da7d30c05681f73c4597ae1f9d090e8a8f4601995",
          "blockNumber": "0x133b0e7",
          "transactionHash": "0x83a03be781592a6622ca38df3dece502f2b1649a525b86cdf7c353d2e57f5ba9",
          "transactionIndex": "0x75",
          "logIndex": "0x130",
          "removed": false
        },
        {
          "address": "0x27428dd2d3dd32a4d7f7c497eaaa23130d894911",
          "topics": [
            "0xda8540426b64ece7b164a9dce95448765f0a7263ef3ff85091c9c7361e485364",
            "0x0000000000000000000000000000000000000000000000000000000000003870"
          ],
          "data": "0x0000000000000000000000000000000000000000000000000001fc0819b5e6800000000000000000000000000000000000000000000000000000000000000000",
          "blockHash": "0x0cdabe582a4b9d911d97db7da7d30c05681f73c4597ae1f9d090e8a8f4601995",
          "blockNumber": "0x133b0e7",
          "transactionHash": "0x83a03be781592a6622ca38df3dece502f2b1649a525b86cdf7c353d2e57f5ba9",
          "transactionIndex": "0x75",
          "logIndex": "0x131",
          "removed": false
        },
        {
          "address": "0x3bf4aebcad920447c5fdd6529239ab3922ce2186",
          "topics": [
            "0xc3192e083c87c556db539f071d8a298869f487e951327b5616a6f85ae3da958e"
          ],
          "data": "0x0000000000000000000000000000000000000000000000000000000000000000000000000000000000000000c83bb94779c5577af1d48df8e2a113dff0cb127c0000000000000000000000000000000000000000000000000001fc0819b5e680",
          "blockHash": "0x0cdabe582a4b9d911d97db7da7d30c05681f73c4597ae1f9d090e8a8f4601995",
          "blockNumber": "0x133b0e7",
          "transactionHash": "0x83a03be781592a6622ca38df3dece502f2b1649a525b86cdf7c353d2e57f5ba9",
          "transactionIndex": "0x75",
          "logIndex": "0x132",
          "removed": false
        },
        {
          "address": "0x3bf4aebcad920447c5fdd6529239ab3922ce2186",
          "topics": [
            "0x79376a0dc6cbfe6f6f8f89ad24c262a8c6233f8df181d3fe5abb2e2442e8c738"
          ],
          "data": "0x00000000000000000000000000000000000000000000000000000000000000170000000000000000000000000000000000000000000000000000000000000040000000000000000000000000344169cc4abe9459e77bd99d13aa8589b55b617400000000000000000000000090a82462258f79780498151ef6f663f1d4be4e3b0000000000000000000000000000000000000000000000000000000000000080000000000000000000000000000000000000000000000000000000000000014000000000000000000000000000000000000000000000000000000000000000910000000000000000000000000000000000000000000000000000000000000003000000000000000000000000c83bb94779c5577af1d48df8e2a113dff0cb127c004f994e5454080000000002faf080000000000000000000000000fe0c30065b384f05761f15d0cc899d4f9f9cc0eb000000000000000000000000c83bb94779c5577af1d48df8e2a113dff0cb127c00170000000000000000000000000000000000000000000000000000000000000000000000000000000000000000000000",
          "blockHash": "0x0cdabe582a4b9d911d97db7da7d30c05681f73c4597ae1f9d090e8a8f4601995",
          "blockNumber": "0x133b0e7",
          "transactionHash": "0x83a03be781592a6622ca38df3dece502f2b1649a525b86cdf7c353d2e57f5ba9",
          "transactionIndex": "0x75",
          "logIndex": "0x133",
          "removed": false
        },
        {
          "address": "0x344169cc4abe9459e77bd99d13aa8589b55b6174",
          "topics": [
            "0xe54e51e42099622516fa3b48e9733581c9dbdcb771cafb093f745a0532a35982"
          ],
          "data": "0x000000000000000000000000c83bb94779c5577af1d48df8e2a113dff0cb127c000000000000000000000000c83bb94779c5577af1d48df8e2a113dff0cb127c00000000000000000000000000000000000000000000000006f05b59d3b200000000000000000000000000000000000000000000000000000001fc0819b5e68000000000000000000000000000000000000000000000000000000000000000170000000000000000000000000000000000000000000000000000000000000003",
          "blockHash": "0x0cdabe582a4b9d911d97db7da7d30c05681f73c4597ae1f9d090e8a8f4601995",
          "blockNumber": "0x133b0e7",
          "transactionHash": "0x83a03be781592a6622ca38df3dece502f2b1649a525b86cdf7c353d2e57f5ba9",
          "transactionIndex": "0x75",
          "logIndex": "0x134",
          "removed": false
        }
      ],
      "logsBloom": "0x00000000000100000001004000000000000000000010000000000000000200800010000000000000000000000000000000000100800040000000000000000000000000002000000000000008001000200000000000100000000000000000040000000000000000000000000000000000000000000040000000000010004000001000000000800000000000000100000000008000000001000000000001000400000008200400000001000400000000020000000000040000012000000000000000000002100008000000000000000000000000008004000004000000000000000000000010000000000008000000000000200000000000000000000040000000",
      "type": "0x2",
      "transactionHash": "0x83a03be781592a6622ca38df3dece502f2b1649a525b86cdf7c353d2e57f5ba9",
      "transactionIndex": "0x75",
      "blockHash": "0x0cdabe582a4b9d911d97db7da7d30c05681f73c4597ae1f9d090e8a8f4601995",
      "blockNumber": "0x133b0e7",
      "gasUsed": "0x460dc",
      "effectiveGasPrice": "0xaa2d779d",
      "blobGasUsed": "0x0",
      "from": "0xc83bb94779c5577af1d48df8e2a113dff0cb127c",
      "to": "0x344169cc4abe9459e77bd99d13aa8589b55b6174",
      "contractAddress": null
    }
  ],
  "libraries": [],
  "pending": [],
  "returns": {},
  "timestamp": 1719271935,
  "chain": 1,
  "commit": "037d292"
}